{
  "address": "0xc3D585288D35215754e970A23DD8DE37a08e71B7",
  "abi": [
    {
      "inputs": [
        {
          "internalType": "address",
          "name": "_beneficiary",
          "type": "address"
        },
        {
          "internalType": "address",
          "name": "_royalties",
          "type": "address"
        },
        {
          "internalType": "string",
          "name": "_initialBaseURI",
          "type": "string"
        }
      ],
      "stateMutability": "nonpayable",
      "type": "constructor"
    },
    {
      "anonymous": false,
      "inputs": [
        {
          "indexed": true,
          "internalType": "address",
          "name": "owner",
          "type": "address"
        },
        {
          "indexed": true,
          "internalType": "address",
          "name": "approved",
          "type": "address"
        },
        {
          "indexed": true,
          "internalType": "uint256",
          "name": "tokenId",
          "type": "uint256"
        }
      ],
      "name": "Approval",
      "type": "event"
    },
    {
      "anonymous": false,
      "inputs": [
        {
          "indexed": true,
          "internalType": "address",
          "name": "owner",
          "type": "address"
        },
        {
          "indexed": true,
          "internalType": "address",
          "name": "operator",
          "type": "address"
        },
        {
          "indexed": false,
          "internalType": "bool",
          "name": "approved",
          "type": "bool"
        }
      ],
      "name": "ApprovalForAll",
      "type": "event"
    },
    {
      "anonymous": false,
      "inputs": [
        {
          "indexed": true,
          "internalType": "address",
          "name": "previousOwner",
          "type": "address"
        },
        {
          "indexed": true,
          "internalType": "address",
          "name": "newOwner",
          "type": "address"
        }
      ],
      "name": "OwnershipTransferred",
      "type": "event"
    },
    {
      "anonymous": false,
      "inputs": [
        {
          "indexed": true,
          "internalType": "address",
          "name": "from",
          "type": "address"
        },
        {
          "indexed": true,
          "internalType": "address",
          "name": "to",
          "type": "address"
        },
        {
          "indexed": true,
          "internalType": "uint256",
          "name": "tokenId",
          "type": "uint256"
        }
      ],
      "name": "Transfer",
      "type": "event"
    },
    {
      "inputs": [],
      "name": "MAX_MINT_PER_TX",
      "outputs": [
        {
          "internalType": "uint256",
          "name": "",
          "type": "uint256"
        }
      ],
      "stateMutability": "view",
      "type": "function"
    },
    {
      "inputs": [],
      "name": "MAX_SUPPLY",
      "outputs": [
        {
          "internalType": "uint256",
          "name": "",
          "type": "uint256"
        }
      ],
      "stateMutability": "view",
      "type": "function"
    },
    {
      "inputs": [],
      "name": "MINT_PRICE",
      "outputs": [
        {
          "internalType": "uint256",
          "name": "",
          "type": "uint256"
        }
      ],
      "stateMutability": "view",
      "type": "function"
    },
    {
      "inputs": [],
      "name": "PROVENANCE_HASH",
      "outputs": [
        {
          "internalType": "string",
          "name": "",
          "type": "string"
        }
      ],
      "stateMutability": "view",
      "type": "function"
    },
    {
      "inputs": [
        {
          "internalType": "address",
          "name": "to",
          "type": "address"
        },
        {
          "internalType": "uint256",
          "name": "tokenId",
          "type": "uint256"
        }
      ],
      "name": "approve",
      "outputs": [],
      "stateMutability": "nonpayable",
      "type": "function"
    },
    {
      "inputs": [
        {
          "internalType": "address",
          "name": "owner",
          "type": "address"
        }
      ],
      "name": "balanceOf",
      "outputs": [
        {
          "internalType": "uint256",
          "name": "",
          "type": "uint256"
        }
      ],
      "stateMutability": "view",
      "type": "function"
    },
    {
      "inputs": [],
      "name": "baseURI",
      "outputs": [
        {
          "internalType": "string",
          "name": "",
          "type": "string"
        }
      ],
      "stateMutability": "view",
      "type": "function"
    },
    {
      "inputs": [],
      "name": "beneficiary",
      "outputs": [
        {
          "internalType": "address",
          "name": "",
          "type": "address"
        }
      ],
      "stateMutability": "view",
      "type": "function"
    },
    {
      "inputs": [
        {
          "internalType": "uint256",
          "name": "tokenId",
          "type": "uint256"
        }
      ],
      "name": "getApproved",
      "outputs": [
        {
          "internalType": "address",
          "name": "",
          "type": "address"
        }
      ],
      "stateMutability": "view",
      "type": "function"
    },
    {
      "inputs": [],
      "name": "isActive",
      "outputs": [
        {
          "internalType": "bool",
          "name": "",
          "type": "bool"
        }
      ],
      "stateMutability": "view",
      "type": "function"
    },
    {
      "inputs": [
        {
          "internalType": "address",
          "name": "owner",
          "type": "address"
        },
        {
          "internalType": "address",
          "name": "operator",
          "type": "address"
        }
      ],
      "name": "isApprovedForAll",
      "outputs": [
        {
          "internalType": "bool",
          "name": "",
          "type": "bool"
        }
      ],
      "stateMutability": "view",
      "type": "function"
    },
    {
      "inputs": [
        {
          "internalType": "uint256",
          "name": "quantity",
          "type": "uint256"
        }
      ],
      "name": "mint",
      "outputs": [],
      "stateMutability": "payable",
      "type": "function"
    },
    {
      "inputs": [],
      "name": "name",
      "outputs": [
        {
          "internalType": "string",
          "name": "",
          "type": "string"
        }
      ],
      "stateMutability": "view",
      "type": "function"
    },
    {
      "inputs": [],
      "name": "owner",
      "outputs": [
        {
          "internalType": "address",
          "name": "",
          "type": "address"
        }
      ],
      "stateMutability": "view",
      "type": "function"
    },
    {
      "inputs": [
        {
          "internalType": "uint256",
          "name": "tokenId",
          "type": "uint256"
        }
      ],
      "name": "ownerOf",
      "outputs": [
        {
          "internalType": "address",
          "name": "",
          "type": "address"
        }
      ],
      "stateMutability": "view",
      "type": "function"
    },
    {
      "inputs": [],
      "name": "renounceOwnership",
      "outputs": [],
      "stateMutability": "nonpayable",
      "type": "function"
    },
    {
      "inputs": [],
      "name": "royalties",
      "outputs": [
        {
          "internalType": "address",
          "name": "",
          "type": "address"
        }
      ],
      "stateMutability": "view",
      "type": "function"
    },
    {
      "inputs": [
        {
          "internalType": "uint256",
          "name": "_tokenId",
          "type": "uint256"
        },
        {
          "internalType": "uint256",
          "name": "_salePrice",
          "type": "uint256"
        }
      ],
      "name": "royaltyInfo",
      "outputs": [
        {
          "internalType": "address",
          "name": "",
          "type": "address"
        },
        {
          "internalType": "uint256",
          "name": "royaltyAmount",
          "type": "uint256"
        }
      ],
      "stateMutability": "view",
      "type": "function"
    },
    {
      "inputs": [
        {
          "internalType": "address",
          "name": "from",
          "type": "address"
        },
        {
          "internalType": "address",
          "name": "to",
          "type": "address"
        },
        {
          "internalType": "uint256",
          "name": "tokenId",
          "type": "uint256"
        }
      ],
      "name": "safeTransferFrom",
      "outputs": [],
      "stateMutability": "nonpayable",
      "type": "function"
    },
    {
      "inputs": [
        {
          "internalType": "address",
          "name": "from",
          "type": "address"
        },
        {
          "internalType": "address",
          "name": "to",
          "type": "address"
        },
        {
          "internalType": "uint256",
          "name": "tokenId",
          "type": "uint256"
        },
        {
          "internalType": "bytes",
          "name": "data",
          "type": "bytes"
        }
      ],
      "name": "safeTransferFrom",
      "outputs": [],
      "stateMutability": "nonpayable",
      "type": "function"
    },
    {
      "inputs": [
        {
          "internalType": "bool",
          "name": "_isActive",
          "type": "bool"
        }
      ],
      "name": "setActive",
      "outputs": [],
      "stateMutability": "nonpayable",
      "type": "function"
    },
    {
      "inputs": [
        {
          "internalType": "address",
          "name": "operator",
          "type": "address"
        },
        {
          "internalType": "bool",
          "name": "approved",
          "type": "bool"
        }
      ],
      "name": "setApprovalForAll",
      "outputs": [],
      "stateMutability": "nonpayable",
      "type": "function"
    },
    {
      "inputs": [
        {
          "internalType": "string",
          "name": "uri",
          "type": "string"
        }
      ],
      "name": "setBaseURI",
      "outputs": [],
      "stateMutability": "nonpayable",
      "type": "function"
    },
    {
      "inputs": [
        {
          "internalType": "address",
          "name": "_beneficiary",
          "type": "address"
        }
      ],
      "name": "setBeneficiary",
      "outputs": [],
      "stateMutability": "nonpayable",
      "type": "function"
    },
    {
      "inputs": [
        {
          "internalType": "string",
          "name": "hash",
          "type": "string"
        }
      ],
      "name": "setProvenanceHash",
      "outputs": [],
      "stateMutability": "nonpayable",
      "type": "function"
    },
    {
      "inputs": [
        {
          "internalType": "address",
          "name": "_royalties",
          "type": "address"
        }
      ],
      "name": "setRoyalties",
      "outputs": [],
      "stateMutability": "nonpayable",
      "type": "function"
    },
    {
      "inputs": [
        {
          "internalType": "bytes4",
          "name": "interfaceId",
          "type": "bytes4"
        }
      ],
      "name": "supportsInterface",
      "outputs": [
        {
          "internalType": "bool",
          "name": "",
          "type": "bool"
        }
      ],
      "stateMutability": "view",
      "type": "function"
    },
    {
      "inputs": [],
      "name": "symbol",
      "outputs": [
        {
          "internalType": "string",
          "name": "",
          "type": "string"
        }
      ],
      "stateMutability": "view",
      "type": "function"
    },
    {
      "inputs": [
        {
          "internalType": "uint256",
          "name": "tokenId",
          "type": "uint256"
        }
      ],
      "name": "tokenURI",
      "outputs": [
        {
          "internalType": "string",
          "name": "",
          "type": "string"
        }
      ],
      "stateMutability": "view",
      "type": "function"
    },
    {
      "inputs": [],
      "name": "totalSupply",
      "outputs": [
        {
          "internalType": "uint256",
          "name": "",
          "type": "uint256"
        }
      ],
      "stateMutability": "view",
      "type": "function"
    },
    {
      "inputs": [
        {
          "internalType": "address",
          "name": "from",
          "type": "address"
        },
        {
          "internalType": "address",
          "name": "to",
          "type": "address"
        },
        {
          "internalType": "uint256",
          "name": "tokenId",
          "type": "uint256"
        }
      ],
      "name": "transferFrom",
      "outputs": [],
      "stateMutability": "nonpayable",
      "type": "function"
    },
    {
      "inputs": [
        {
          "internalType": "address",
          "name": "newOwner",
          "type": "address"
        }
      ],
      "name": "transferOwnership",
      "outputs": [],
      "stateMutability": "nonpayable",
      "type": "function"
    },
    {
      "inputs": [],
      "name": "withdraw",
      "outputs": [],
      "stateMutability": "nonpayable",
      "type": "function"
    }
  ],
  "transactionHash": "0x068b0afb722e7bd66c95be0ea20f4ec7c44c9b8f701a538f615cab39c7b28846",
  "args": [
    "0xf3cCA8B945F2AADdb163A3B37bc92424E4Ca1789",
    "0xf3cCA8B945F2AADdb163A3B37bc92424E4Ca1789",
    "https://crypstersapi.ubiqsmart.com/cryptster/"
  ],
  "numDeployments": 1,
  "solcInputHash": "3705d3def4f0d55b9b6bf08cd3f3efbd",
  "bytecode": "0x60806040526008805460ff191690553480156200001b57600080fd5b506040516200252f3803806200252f8339810160408190526200003e91620001ce565b6040518060400160405280600a8152602001694372797074737465727360b01b8152506040518060400160405280600a8152602001694352595054535445525360b01b815250816000908162000095919062000357565b506001620000a4828262000357565b505050620000c1620000bb6200014560201b60201c565b62000149565b60016007556001600160a01b038316620000da57600080fd5b6001600160a01b038216620000ee57600080fd5b60088054610100600160a81b0319166101006001600160a01b038681169190910291909117909155600980546001600160a01b031916918416919091179055600a6200013b828262000357565b5050505062000423565b3390565b600680546001600160a01b038381166001600160a01b0319831681179093556040519116919082907f8be0079c531659141344cd1fd0a4f28419497f9722a3daafe3b4186f6b6457e090600090a35050565b80516001600160a01b0381168114620001b357600080fd5b919050565b634e487b7160e01b600052604160045260246000fd5b600080600060608486031215620001e457600080fd5b620001ef846200019b565b92506020620002008186016200019b565b60408601519093506001600160401b03808211156200021e57600080fd5b818701915087601f8301126200023357600080fd5b815181811115620002485762000248620001b8565b604051601f8201601f19908116603f01168101908382118183101715620002735762000273620001b8565b816040528281528a868487010111156200028c57600080fd5b600093505b82841015620002b0578484018601518185018701529285019262000291565b60008684830101528096505050505050509250925092565b600181811c90821680620002dd57607f821691505b602082108103620002fe57634e487b7160e01b600052602260045260246000fd5b50919050565b601f8211156200035257600081815260208120601f850160051c810160208610156200032d5750805b601f850160051c820191505b818110156200034e5782815560010162000339565b5050505b505050565b81516001600160401b03811115620003735762000373620001b8565b6200038b81620003848454620002c8565b8462000304565b602080601f831160018114620003c35760008415620003aa5750858301515b600019600386901b1c1916600185901b1785556200034e565b600085815260208120601f198616915b82811015620003f457888601518255948401946001909101908401620003d3565b5085821015620004135787850151600019600388901b60f8161c191681555b5050505050600190811b01905550565b6120fc80620004336000396000f3fe6080604052600436106101fe5760003560e01c80636352211e1161011d578063a22cb465116100b0578063c87b56dd1161007f578063f053dc5c11610064578063f053dc5c146105e7578063f2fde38b14610607578063ff1b65561461062757600080fd5b8063c87b56dd1461057e578063e985e9c51461059e57600080fd5b8063a22cb46514610501578063acec338a14610521578063b88d4fde14610541578063c002d23d1461056157600080fd5b80638da5cb5b116100ec5780638da5cb5b146104a65780638ecad721146104c457806395d89b41146104d9578063a0712d68146104ee57600080fd5b80636352211e1461043c5780636c0360eb1461045c57806370a0823114610471578063715018a61461049157600080fd5b806323b872dd1161019557806338af3eed1161016457806338af3eed146103c25780633ccfd60b146103e757806342842e0e146103fc57806355f804b31461041c57600080fd5b806323b872dd1461032d5780632a55205a1461034d5780632a9e63c61461038c57806332cb6b0c146103ac57600080fd5b806310969523116101d157806310969523146102b457806318160ddd146102d45780631c31f710146102f357806322f3e2d41461031357600080fd5b806301ffc9a71461020357806306fdde0314610238578063081812fc1461025a578063095ea7b314610292575b600080fd5b34801561020f57600080fd5b5061022361021e3660046119ca565b61063c565b60405190151581526020015b60405180910390f35b34801561024457600080fd5b5061024d610680565b60405161022f9190611a37565b34801561026657600080fd5b5061027a610275366004611a4a565b610712565b6040516001600160a01b03909116815260200161022f565b34801561029e57600080fd5b506102b26102ad366004611a7f565b610739565b005b3480156102c057600080fd5b506102b26102cf366004611aa9565b61088d565b3480156102e057600080fd5b50600b545b60405190815260200161022f565b3480156102ff57600080fd5b506102b261030e366004611b1b565b6108a2565b34801561031f57600080fd5b506008546102239060ff1681565b34801561033957600080fd5b506102b2610348366004611b36565b6108e9565b34801561035957600080fd5b5061036d610368366004611b72565b610970565b604080516001600160a01b03909316835260208301919091520161022f565b34801561039857600080fd5b506102b26103a7366004611b1b565b61099f565b3480156103b857600080fd5b506102e561037881565b3480156103ce57600080fd5b5060085461027a9061010090046001600160a01b031681565b3480156103f357600080fd5b506102b26109c9565b34801561040857600080fd5b506102b2610417366004611b36565b610a14565b34801561042857600080fd5b506102b2610437366004611c20565b610a2f565b34801561044857600080fd5b5061027a610457366004611a4a565b610a47565b34801561046857600080fd5b5061024d610aac565b34801561047d57600080fd5b506102e561048c366004611b1b565b610b3a565b34801561049d57600080fd5b506102b2610bd4565b3480156104b257600080fd5b506006546001600160a01b031661027a565b3480156104d057600080fd5b506102e5600a81565b3480156104e557600080fd5b5061024d610be8565b6102b26104fc366004611a4a565b610bf7565b34801561050d57600080fd5b506102b261051c366004611c79565b610de4565b34801561052d57600080fd5b506102b261053c366004611cac565b610def565b34801561054d57600080fd5b506102b261055c366004611cc7565b610e0a565b34801561056d57600080fd5b506102e568056bc75e2d6310000081565b34801561058a57600080fd5b5061024d610599366004611a4a565b610e98565b3480156105aa57600080fd5b506102236105b9366004611d43565b6001600160a01b03918216600090815260056020908152604080832093909416825291909152205460ff1690565b3480156105f357600080fd5b5060095461027a906001600160a01b031681565b34801561061357600080fd5b506102b2610622366004611b1b565b610eff565b34801561063357600080fd5b5061024d610f8c565b60006001600160e01b031982167f2a55205a00000000000000000000000000000000000000000000000000000000148061067a575061067a82610f99565b92915050565b60606000805461068f90611d6d565b80601f01602080910402602001604051908101604052809291908181526020018280546106bb90611d6d565b80156107085780601f106106dd57610100808354040283529160200191610708565b820191906000526020600020905b8154815290600101906020018083116106eb57829003601f168201915b5050505050905090565b600061071d82611034565b506000908152600460205260409020546001600160a01b031690565b600061074482610a47565b9050806001600160a01b0316836001600160a01b0316036107d25760405162461bcd60e51b815260206004820152602160248201527f4552433732313a20617070726f76616c20746f2063757272656e74206f776e6560448201527f720000000000000000000000000000000000000000000000000000000000000060648201526084015b60405180910390fd5b336001600160a01b038216148061080c57506001600160a01b038116600090815260056020908152604080832033845290915290205460ff165b61087e5760405162461bcd60e51b815260206004820152603e60248201527f4552433732313a20617070726f76652063616c6c6572206973206e6f7420746f60448201527f6b656e206f776e6572206e6f7220617070726f76656420666f7220616c6c000060648201526084016107c9565b6108888383611098565b505050565b610895611106565b600c610888828483611df5565b6108aa611106565b600880546001600160a01b03909216610100027fffffffffffffffffffffff0000000000000000000000000000000000000000ff909216919091179055565b6108f33382611160565b6109655760405162461bcd60e51b815260206004820152602e60248201527f4552433732313a2063616c6c6572206973206e6f7420746f6b656e206f776e6560448201527f72206e6f7220617070726f76656400000000000000000000000000000000000060648201526084016107c9565b6108888383836111df565b60008061097e606484611ee2565b610989906005611ef6565b6009546001600160a01b03169590945092505050565b6109a7611106565b600980546001600160a01b0319166001600160a01b0392909216919091179055565b6109d1611106565b6008546040516001600160a01b0361010090920491909116904780156108fc02916000818181858888f19350505050158015610a11573d6000803e3d6000fd5b50565b61088883838360405180602001604052806000815250610e0a565b610a37611106565b600a610a438282611f15565b5050565b6000818152600260205260408120546001600160a01b03168061067a5760405162461bcd60e51b815260206004820152601860248201527f4552433732313a20696e76616c696420746f6b656e204944000000000000000060448201526064016107c9565b600a8054610ab990611d6d565b80601f0160208091040260200160405190810160405280929190818152602001828054610ae590611d6d565b8015610b325780601f10610b0757610100808354040283529160200191610b32565b820191906000526020600020905b815481529060010190602001808311610b1557829003601f168201915b505050505081565b60006001600160a01b038216610bb85760405162461bcd60e51b815260206004820152602960248201527f4552433732313a2061646472657373207a65726f206973206e6f74206120766160448201527f6c6964206f776e6572000000000000000000000000000000000000000000000060648201526084016107c9565b506001600160a01b031660009081526003602052604090205490565b610bdc611106565b610be660006113ac565b565b60606001805461068f90611d6d565b60085460ff16610c6f5760405162461bcd60e51b815260206004820152602260248201527f53616c65206d7573742062652061637469766520746f206d696e7420546f6b6560448201527f6e7300000000000000000000000000000000000000000000000000000000000060648201526084016107c9565b600a811115610cc05760405162461bcd60e51b815260206004820152601b60248201527f4578636565646564206d617820746f6b656e207075726368617365000000000060448201526064016107c9565b61037881600b54610cd19190611fd5565b1115610d455760405162461bcd60e51b815260206004820152602a60248201527f507572636861736520776f756c6420657863656564206d617820737570706c7960448201527f206f6620746f6b656e730000000000000000000000000000000000000000000060648201526084016107c9565b34610d598268056bc75e2d63100000611ef6565b1115610da75760405162461bcd60e51b815260206004820152601d60248201527f5542512076616c75652073656e74206973206e6f7420636f727265637400000060448201526064016107c9565b60015b818111610a4357600b8054906000610dc183611fe8565b9190505550610dd233600b546113fe565b80610ddc81611fe8565b915050610daa565b610a43338383611418565b610df7611106565b6008805460ff1916911515919091179055565b610e143383611160565b610e865760405162461bcd60e51b815260206004820152602e60248201527f4552433732313a2063616c6c6572206973206e6f7420746f6b656e206f776e6560448201527f72206e6f7220617070726f76656400000000000000000000000000000000000060648201526084016107c9565b610e92848484846114e6565b50505050565b6060610ea382611034565b6000610ead611564565b90506000815111610ecd5760405180602001604052806000815250610ef8565b80610ed784611573565b604051602001610ee8929190612001565b6040516020818303038152906040525b9392505050565b610f07611106565b6001600160a01b038116610f835760405162461bcd60e51b815260206004820152602660248201527f4f776e61626c653a206e6577206f776e657220697320746865207a65726f206160448201527f646472657373000000000000000000000000000000000000000000000000000060648201526084016107c9565b610a11816113ac565b600c8054610ab990611d6d565b60006001600160e01b031982167f80ac58cd000000000000000000000000000000000000000000000000000000001480610ffc57506001600160e01b031982167f5b5e139f00000000000000000000000000000000000000000000000000000000145b8061067a57507f01ffc9a7000000000000000000000000000000000000000000000000000000006001600160e01b031983161461067a565b6000818152600260205260409020546001600160a01b0316610a115760405162461bcd60e51b815260206004820152601860248201527f4552433732313a20696e76616c696420746f6b656e204944000000000000000060448201526064016107c9565b600081815260046020526040902080546001600160a01b0319166001600160a01b03841690811790915581906110cd82610a47565b6001600160a01b03167f8c5be1e5ebec7d5bd14f71427d1e84f3dd0314c0f7b2291e5b200ac8c7c3b92560405160405180910390a45050565b6006546001600160a01b03163314610be65760405162461bcd60e51b815260206004820181905260248201527f4f776e61626c653a2063616c6c6572206973206e6f7420746865206f776e657260448201526064016107c9565b60008061116c83610a47565b9050806001600160a01b0316846001600160a01b031614806111b357506001600160a01b0380821660009081526005602090815260408083209388168352929052205460ff165b806111d75750836001600160a01b03166111cc84610712565b6001600160a01b0316145b949350505050565b826001600160a01b03166111f282610a47565b6001600160a01b03161461126e5760405162461bcd60e51b815260206004820152602560248201527f4552433732313a207472616e736665722066726f6d20696e636f72726563742060448201527f6f776e657200000000000000000000000000000000000000000000000000000060648201526084016107c9565b6001600160a01b0382166112e95760405162461bcd60e51b8152602060048201526024808201527f4552433732313a207472616e7366657220746f20746865207a65726f2061646460448201527f726573730000000000000000000000000000000000000000000000000000000060648201526084016107c9565b6112f4600082611098565b6001600160a01b038316600090815260036020526040812080546001929061131d908490612030565b90915550506001600160a01b038216600090815260036020526040812080546001929061134b908490611fd5565b909155505060008181526002602052604080822080546001600160a01b0319166001600160a01b0386811691821790925591518493918716917fddf252ad1be2c89b69c2b068fc378daa952ba7f163c4a11628f55a4df523b3ef91a4505050565b600680546001600160a01b038381166001600160a01b0319831681179093556040519116919082907f8be0079c531659141344cd1fd0a4f28419497f9722a3daafe3b4186f6b6457e090600090a35050565b610a438282604051806020016040528060008152506116a8565b816001600160a01b0316836001600160a01b0316036114795760405162461bcd60e51b815260206004820152601960248201527f4552433732313a20617070726f766520746f2063616c6c65720000000000000060448201526064016107c9565b6001600160a01b03838116600081815260056020908152604080832094871680845294825291829020805460ff191686151590811790915591519182527f17307eab39ab6107e8899845ad3d59bd9653f200f220920489ca2b5937696c31910160405180910390a3505050565b6114f18484846111df565b6114fd84848484611726565b610e925760405162461bcd60e51b815260206004820152603260248201527f4552433732313a207472616e7366657220746f206e6f6e20455243373231526560448201527131b2b4bb32b91034b6b83632b6b2b73a32b960711b60648201526084016107c9565b6060600a805461068f90611d6d565b6060816000036115b657505060408051808201909152600181527f3000000000000000000000000000000000000000000000000000000000000000602082015290565b8160005b81156115e057806115ca81611fe8565b91506115d99050600a83611ee2565b91506115ba565b60008167ffffffffffffffff8111156115fb576115fb611b94565b6040519080825280601f01601f191660200182016040528015611625576020820181803683370190505b5090505b84156111d75761163a600183612030565b9150611647600a86612043565b611652906030611fd5565b60f81b81838151811061166757611667612057565b60200101907effffffffffffffffffffffffffffffffffffffffffffffffffffffffffffff1916908160001a9053506116a1600a86611ee2565b9450611629565b6116b28383611872565b6116bf6000848484611726565b6108885760405162461bcd60e51b815260206004820152603260248201527f4552433732313a207472616e7366657220746f206e6f6e20455243373231526560448201527131b2b4bb32b91034b6b83632b6b2b73a32b960711b60648201526084016107c9565b60006001600160a01b0384163b1561186757604051630a85bd0160e11b81526001600160a01b0385169063150b7a029061176a90339089908890889060040161206d565b6020604051808303816000875af19250505080156117a5575060408051601f3d908101601f191682019092526117a2918101906120a9565b60015b61184d573d8080156117d3576040519150601f19603f3d011682016040523d82523d6000602084013e6117d8565b606091505b5080516000036118455760405162461bcd60e51b815260206004820152603260248201527f4552433732313a207472616e7366657220746f206e6f6e20455243373231526560448201527131b2b4bb32b91034b6b83632b6b2b73a32b960711b60648201526084016107c9565b805181602001fd5b6001600160e01b031916630a85bd0160e11b1490506111d7565b506001949350505050565b6001600160a01b0382166118c85760405162461bcd60e51b815260206004820181905260248201527f4552433732313a206d696e7420746f20746865207a65726f206164647265737360448201526064016107c9565b6000818152600260205260409020546001600160a01b03161561192d5760405162461bcd60e51b815260206004820152601c60248201527f4552433732313a20746f6b656e20616c7265616479206d696e7465640000000060448201526064016107c9565b6001600160a01b0382166000908152600360205260408120805460019290611956908490611fd5565b909155505060008181526002602052604080822080546001600160a01b0319166001600160a01b03861690811790915590518392907fddf252ad1be2c89b69c2b068fc378daa952ba7f163c4a11628f55a4df523b3ef908290a45050565b6001600160e01b031981168114610a1157600080fd5b6000602082840312156119dc57600080fd5b8135610ef8816119b4565b60005b83811015611a025781810151838201526020016119ea565b50506000910152565b60008151808452611a238160208601602086016119e7565b601f01601f19169290920160200192915050565b602081526000610ef86020830184611a0b565b600060208284031215611a5c57600080fd5b5035919050565b80356001600160a01b0381168114611a7a57600080fd5b919050565b60008060408385031215611a9257600080fd5b611a9b83611a63565b946020939093013593505050565b60008060208385031215611abc57600080fd5b823567ffffffffffffffff80821115611ad457600080fd5b818501915085601f830112611ae857600080fd5b813581811115611af757600080fd5b866020828501011115611b0957600080fd5b60209290920196919550909350505050565b600060208284031215611b2d57600080fd5b610ef882611a63565b600080600060608486031215611b4b57600080fd5b611b5484611a63565b9250611b6260208501611a63565b9150604084013590509250925092565b60008060408385031215611b8557600080fd5b50508035926020909101359150565b634e487b7160e01b600052604160045260246000fd5b600067ffffffffffffffff80841115611bc557611bc5611b94565b604051601f8501601f19908116603f01168101908282118183101715611bed57611bed611b94565b81604052809350858152868686011115611c0657600080fd5b858560208301376000602087830101525050509392505050565b600060208284031215611c3257600080fd5b813567ffffffffffffffff811115611c4957600080fd5b8201601f81018413611c5a57600080fd5b6111d784823560208401611baa565b80358015158114611a7a57600080fd5b60008060408385031215611c8c57600080fd5b611c9583611a63565b9150611ca360208401611c69565b90509250929050565b600060208284031215611cbe57600080fd5b610ef882611c69565b60008060008060808587031215611cdd57600080fd5b611ce685611a63565b9350611cf460208601611a63565b925060408501359150606085013567ffffffffffffffff811115611d1757600080fd5b8501601f81018713611d2857600080fd5b611d3787823560208401611baa565b91505092959194509250565b60008060408385031215611d5657600080fd5b611d5f83611a63565b9150611ca360208401611a63565b600181811c90821680611d8157607f821691505b602082108103611da157634e487b7160e01b600052602260045260246000fd5b50919050565b601f82111561088857600081815260208120601f850160051c81016020861015611dce5750805b601f850160051c820191505b81811015611ded57828155600101611dda565b505050505050565b67ffffffffffffffff831115611e0d57611e0d611b94565b611e2183611e1b8354611d6d565b83611da7565b6000601f841160018114611e555760008515611e3d5750838201355b600019600387901b1c1916600186901b178355611eaf565b600083815260209020601f19861690835b82811015611e865786850135825560209485019460019092019101611e66565b5086821015611ea35760001960f88860031b161c19848701351681555b505060018560011b0183555b5050505050565b634e487b7160e01b600052601260045260246000fd5b634e487b7160e01b600052601160045260246000fd5b600082611ef157611ef1611eb6565b500490565b6000816000190483118215151615611f1057611f10611ecc565b500290565b815167ffffffffffffffff811115611f2f57611f2f611b94565b611f4381611f3d8454611d6d565b84611da7565b602080601f831160018114611f785760008415611f605750858301515b600019600386901b1c1916600185901b178555611ded565b600085815260208120601f198616915b82811015611fa757888601518255948401946001909101908401611f88565b5085821015611fc55787850151600019600388901b60f8161c191681555b5050505050600190811b01905550565b8082018082111561067a5761067a611ecc565b600060018201611ffa57611ffa611ecc565b5060010190565b600083516120138184602088016119e7565b8351908301906120278183602088016119e7565b01949350505050565b8181038181111561067a5761067a611ecc565b60008261205257612052611eb6565b500690565b634e487b7160e01b600052603260045260246000fd5b60006001600160a01b0380871683528086166020840152508360408301526080606083015261209f6080830184611a0b565b9695505050505050565b6000602082840312156120bb57600080fd5b8151610ef8816119b456fea264697066735822122065d656bb9953fede270a4c963328de4a607b1190e6c94f14877e442f6de3291064736f6c63430008100033",
  "devdoc": {
    "kind": "dev",
    "methods": {
      "approve(address,uint256)": {
        "details": "See {IERC721-approve}."
      },
      "balanceOf(address)": {
        "details": "See {IERC721-balanceOf}."
      },
      "getApproved(uint256)": {
        "details": "See {IERC721-getApproved}."
      },
      "isApprovedForAll(address,address)": {
        "details": "See {IERC721-isApprovedForAll}."
      },
      "name()": {
        "details": "See {IERC721Metadata-name}."
      },
      "owner()": {
        "details": "Returns the address of the current owner."
      },
      "ownerOf(uint256)": {
        "details": "See {IERC721-ownerOf}."
      },
      "renounceOwnership()": {
        "details": "Leaves the contract without owner. It will not be possible to call `onlyOwner` functions anymore. Can only be called by the current owner. NOTE: Renouncing ownership will leave the contract without an owner, thereby removing any functionality that is only available to the owner."
      },
      "safeTransferFrom(address,address,uint256)": {
        "details": "See {IERC721-safeTransferFrom}."
      },
      "safeTransferFrom(address,address,uint256,bytes)": {
        "details": "See {IERC721-safeTransferFrom}."
      },
      "setApprovalForAll(address,bool)": {
        "details": "See {IERC721-setApprovalForAll}."
      },
      "symbol()": {
        "details": "See {IERC721Metadata-symbol}."
      },
      "tokenURI(uint256)": {
        "details": "See {IERC721Metadata-tokenURI}."
      },
      "transferFrom(address,address,uint256)": {
        "details": "See {IERC721-transferFrom}."
      },
      "transferOwnership(address)": {
        "details": "Transfers ownership of the contract to a new account (`newOwner`). Can only be called by the current owner."
      }
    },
    "version": 1
  },
  "userdoc": {
    "kind": "user",
    "methods": {},
    "version": 1
  },
  "storageLayout": {
    "storage": [
      {
        "astId": 197,
        "contract": "contracts/Cryptsters.sol:Cryptsters",
        "label": "_name",
        "offset": 0,
        "slot": "0",
        "type": "t_string_storage"
      },
      {
        "astId": 199,
        "contract": "contracts/Cryptsters.sol:Cryptsters",
        "label": "_symbol",
        "offset": 0,
        "slot": "1",
        "type": "t_string_storage"
      },
      {
        "astId": 203,
        "contract": "contracts/Cryptsters.sol:Cryptsters",
        "label": "_owners",
        "offset": 0,
        "slot": "2",
        "type": "t_mapping(t_uint256,t_address)"
      },
      {
        "astId": 207,
        "contract": "contracts/Cryptsters.sol:Cryptsters",
        "label": "_balances",
        "offset": 0,
        "slot": "3",
        "type": "t_mapping(t_address,t_uint256)"
      },
      {
        "astId": 211,
        "contract": "contracts/Cryptsters.sol:Cryptsters",
        "label": "_tokenApprovals",
        "offset": 0,
        "slot": "4",
        "type": "t_mapping(t_uint256,t_address)"
      },
      {
        "astId": 217,
        "contract": "contracts/Cryptsters.sol:Cryptsters",
        "label": "_operatorApprovals",
        "offset": 0,
        "slot": "5",
        "type": "t_mapping(t_address,t_mapping(t_address,t_bool))"
      },
      {
        "astId": 7,
        "contract": "contracts/Cryptsters.sol:Cryptsters",
        "label": "_owner",
        "offset": 0,
        "slot": "6",
        "type": "t_address"
      },
      {
        "astId": 142,
        "contract": "contracts/Cryptsters.sol:Cryptsters",
        "label": "_status",
        "offset": 0,
        "slot": "7",
        "type": "t_uint256"
      },
      {
        "astId": 2374,
        "contract": "contracts/Cryptsters.sol:Cryptsters",
        "label": "isActive",
        "offset": 0,
        "slot": "8",
        "type": "t_bool"
      },
      {
        "astId": 2376,
        "contract": "contracts/Cryptsters.sol:Cryptsters",
        "label": "beneficiary",
        "offset": 1,
        "slot": "8",
        "type": "t_address"
      },
      {
        "astId": 2378,
        "contract": "contracts/Cryptsters.sol:Cryptsters",
        "label": "royalties",
        "offset": 0,
        "slot": "9",
        "type": "t_address"
      },
      {
        "astId": 2380,
        "contract": "contracts/Cryptsters.sol:Cryptsters",
        "label": "baseURI",
        "offset": 0,
        "slot": "10",
        "type": "t_string_storage"
      },
      {
        "astId": 2382,
        "contract": "contracts/Cryptsters.sol:Cryptsters",
        "label": "_currentId",
        "offset": 0,
        "slot": "11",
        "type": "t_uint256"
      },
      {
        "astId": 2384,
        "contract": "contracts/Cryptsters.sol:Cryptsters",
        "label": "PROVENANCE_HASH",
        "offset": 0,
        "slot": "12",
        "type": "t_string_storage"
      }
    ],
    "types": {
      "t_address": {
        "encoding": "inplace",
        "label": "address",
        "numberOfBytes": "20"
      },
      "t_bool": {
        "encoding": "inplace",
        "label": "bool",
        "numberOfBytes": "1"
      },
      "t_mapping(t_address,t_bool)": {
        "encoding": "mapping",
        "key": "t_address",
        "label": "mapping(address => bool)",
        "numberOfBytes": "32",
        "value": "t_bool"
      },
      "t_mapping(t_address,t_mapping(t_address,t_bool))": {
        "encoding": "mapping",
        "key": "t_address",
        "label": "mapping(address => mapping(address => bool))",
        "numberOfBytes": "32",
        "value": "t_mapping(t_address,t_bool)"
      },
      "t_mapping(t_address,t_uint256)": {
        "encoding": "mapping",
        "key": "t_address",
        "label": "mapping(address => uint256)",
        "numberOfBytes": "32",
        "value": "t_uint256"
      },
      "t_mapping(t_uint256,t_address)": {
        "encoding": "mapping",
        "key": "t_uint256",
        "label": "mapping(uint256 => address)",
        "numberOfBytes": "32",
        "value": "t_address"
      },
      "t_string_storage": {
        "encoding": "bytes",
        "label": "string",
        "numberOfBytes": "32"
      },
      "t_uint256": {
        "encoding": "inplace",
        "label": "uint256",
        "numberOfBytes": "32"
      }
    }
  }
}